:100000000C941A030C9442030C9442030C94420384
:100010000C9442030C9442030C9442030C9442034C
:100020000C9442030C9442030C9443090C94B209BF
:100030000C9442030C9442030C9442030C9442032C
:100040000C9442030C9442030C9442030C9442031C
:100050000C9442030C9442030C9442030C94E40B62
:100060000C9442030C9442030C9442030C944203FC
:100070000C9442030C9442030C9442030C944203EC
:100080000C942E0C0C9442030C9442030C944203E7
:100090000C9442030C9442030C9442030C944203CC
:1000A0000C9442030C9442030C94420300000000A1
:1000B000003E5B4F5B3E3E6B4F6B3E1C3E7C3E1CEE
:1000C000183C7E3C181C577D571C1C5E7F5E1C0034
:1000D000183C1800FFE7C3E7FF0018241800FFE7EB
:1000E000DBE7FF30483A060E2629792926407F05AE
:1000F0000507407F05253F5A3CE73C5A7F3E1C1CC4
:1001000008081C1C3E7F14227F22145F5F005F5F83
:1001100006097F017F006689956A6060606060946F
:10012000A2FFA29408047E040810207E2010080874
:100130002A1C08081C2A08081E101010100C1E0C7F
:100140001E0C30383E3830060E3E0E060000000011
:100150000000005F00000007000700147F147F14F8
:10016000242A7F2A1223130864623649562050003D
:1001700008070300001C2241000041221C002A1C29
:100180007F1C2A08083E0808008070300008080814
:100190000808000060600020100804023E51494534
:1001A0003E00427F400072494949462141494D3352
:1001B0001814127F1027454545393C4A49493141B9
:1001C000211109073649494936464949291E000087
:1001D00014000000403400000008142241141414DC
:1001E0001414004122140802015909063E415D59C8
:1001F0004E7C1211127C7F494949363E41414122D1
:100200007F4141413E7F494949417F090909013EFA
:10021000414151737F0808087F00417F4100204021
:10022000413F017F081422417F404040407F021C33
:10023000027F7F0408107F3E4141413E7F0909094A
:10024000063E4151215E7F09192946264949493216
:1002500003017F01033F4040403F1F2040201F3FDC
:100260004038403F63140814630304780403615961
:10027000494D43007F4141410204081020004141A3
:10028000417F04020102044040404040000307084F
:100290000020545478407F2844443838444444284B
:1002A000384444287F385454541800087E090218F2
:1002B000A4A49C787F0804047800447D400020407A
:1002C000403D007F1028440000417F40007C0478BE
:1002D00004787C080404783844444438FC18242406
:1002E0001818242418FC7C08040408485454542486
:1002F00004043F44243C4040207C1C2040201C3C03
:100300004030403C44281028444C9090907C4464F9
:10031000544C44000836410000007700000041368C
:10032000080002010204023C2623263C1EA1A16112
:10033000123A4040207A3854545559215555794144
:100340002154547841215554784020545579400C1B
:100350001E527212395555555939545454593955FC
:100360005454580000457C410002457D420001453F
:100370007C40F0292429F0F0282528F07C545545AC
:10038000002054547C547C0A097F4932494949323F
:100390003248484832324A4848303A4141217A3A54
:1003A00042402078009DA0A07D39444444393D401E
:1003B00040403D3C24FF2424487E4943662B2FFCCB
:1003C0002F2BFF0929F620C0887E09032054547979
:1003D000410000447D413048484A32384040227A4A
:1003E000007A0A0A727D0D19317D2629292F2826C7
:1003F0002929292630484D402038080808080808CF
:100400000808382F10C8ACBA2F102834FA00007B27
:10041000000008142A142222142A1408950022002D
:1004200095AA005500AAAA55AA55AA000000FF00E7
:10043000101010FF00141414FF001010FF00FF1024
:1004400010F010F0141414FC001414F700FF000056
:10045000FF00FF1414F404FC141417101F10101FD5
:10046000101F1414141F00101010F0000000001FC3
:10047000101010101F10101010F010000000FF10CE
:100480001010101010101010FF10000000FF1400CA
:1004900000FF00FF00001F10170000FC04F41414FC
:1004A0001710171414F404F40000FF00F7141414C8
:1004B00014141414F700F7141414171410101F1048
:1004C0001F141414F4141010F010F000001F101F6B
:1004D0000000001F14000000FC140000F010F010D9
:1004E00010FF10FF141414FF141010101F00000050
:1004F00000F010FFFFFFFFFFF0F0F0F0F0FFFFFF54
:100500000000000000FFFF0F0F0F0F0F38444438AA
:10051000447C2A2A3E147E02020606027E027E02E5
:1005200063554941633844443C04407E201E200604
:10053000027E020299A5E7A5991C2A492A1C4C7241
:1005400001724C304A4D4D303048784830BC625AC8
:10055000463D3E494949007E0101017E2A2A2A2A58
:100560002A44445F444440514A444040444A514034
:100570000000FF0103E080FF000008086B6B0836F5
:1005800012362436060F090F060000181800000066
:100590001010003040FF0101001F01011E00191D55
:1005A0001712003C3C3C3C0000000000D5F08D14CC
:1005B000A1C881CFD9F1AF2000C0A0D92181FFA867
:1005C00000A800A83F080B00020202000009040076
:1005D00000010202000005240010010524010101B0
:1005E00004240206052406000107058103100040CB
:1005F00009040100020A0000000705020240000091
:10060000070583024000000403090412010002EF01
:10061000020140412336800001010203014172645E
:1006200075696E6F204C4C430041726475626F793E
:100630000000780C11241FBECFEFDAE0DEBFCDBF83
:1006400011E0A0E0B1E0E4EBFFE102C005900D9203
:10065000A437B107D9F725E0A4E7B1E001C01D92A6
:10066000AE3FB207E1F713E0CAE1D3E004C021973F
:10067000FE010E94D20FC931D107C9F70E94950C23
:100680000C94D80F0C94000020FD2FEFB82F38E009
:1006900067FF02C0360F60E087FF02C0480FB0E07E
:1006A00090E89B1B491708F4942F80E4861B3817A9
:1006B00008F4832F860F31E061FD34E060FD330FD5
:1006C00062FD32953195A1E081FDA4E080FDAA0F85
:1006D00082FDA295A195732F70955A2F5095815048
:1006E000669566956695869586958695EAEAF1E023
:1006F00040E8649FE00DF11D1124EB0FF11D861BF6
:10070000711101C08F5F511101C08F5F40E8491B1B
:100710003223652F6223882319F4A72B63231CC07F
:10072000772349F0B92F00800722032A0192BA9556
:10073000D1F7E40FF11D8A9569F0B92FB0FF02C01F
:10074000B39501C021932193B250E1F7E40FF11D5D
:100750008A9599F7552331F000800A22062A0192E2
:100760009A95D1F708952F923F924F925F926F9290
:100770007F928F929F92AF92BF92CF92DF92EF9231
:10078000FF920F931F93CF93DF9300D000D0CDB78C
:10079000DEB76A01E62E43E0442EAAEAB1E0F22F6A
:1007A000BB24682E969596959695E1E001FDE4E0D0
:1007B00000FDEE0F02FDE2955FEF5E9F10012094B9
:1007C0003094159507951595079515950795402F24
:1007D0004F3F4CF44095941B40FC440F489FC00C85
:1007E000D11CEB1C4FEF37FF0BC0620E40FE02C066
:1007F000220F331FC21AD30AEB0837FDE394FF27F9
:1008000050E845030F0EA00DB11D5F1B651608F0E3
:10081000652E57E0541B591714F4952FB39450E8E4
:100820005619682F772741FC02C06619770B40FEE6
:1008300002C0660F771F1124A42EFE2E0090A8017F
:10084000D00C0090A901E01C19C0599843E04EBD9E
:10085000C60ED71EE11C7724861509F073940CD0C0
:10086000EEBC07D0DEBC05D0CEBC03D01EBC03D08E
:100870000895C8950000C895C8950895C61AD70A66
:10088000E108E3DFA1141CF0992371F564C0A058BE
:10089000BF4F962C40FC0CC02EB51EBC2F9D8C90DB
:1008A000832081288D92C89500C09A94A9F711C021
:1008B0002EB51EBC2F9D9001DEDF2EB41EBC2F9CDA
:1008C00010018C9030948320832A8D92C8959A943D
:1008D00079F71124A619B1099A9509F45CC077201B
:1008E00019F00DB4599AB1DFFD01E058FF4F962C75
:1008F00040FC0EC02EB51EBC2F9D8C9082208028FF
:100900008D9280808320812881929A9499F716C0D5
:100910002EB51EBC2F9D90018C903080AEDF00C0A4
:100920002EB41EBC2F9C00948020822A8D9210949D
:100930003120332A319200009A9451F71124A50FE7
:10094000B11D9A9561F6BB2031F1772021F00DB4ED
:10095000599A7BDFC89540FC0CC02EB51EBC2F9D5C
:100960008C90822080288D92C89500C06A94A9F747
:1009700012C02EB51EBC2F9D90017DDF9EB51EBC02
:100980009F9D902D8C9090958922822A8D92C8955A
:100990006A9479F7C8951124599A0DB40F900F9065
:1009A0000F900F90DF91CF911F910F91FF90EF90DB
:1009B000DF90CF90BF90AF909F908F907F906F907F
:1009C0005F904F903F902F900895FC018091A70178
:1009D000882311F13FB7F89482E08093E9002091D9
:1009E000F200822F90E01816190614F481E090E0CE
:1009F000882339F0289844E64093A6014091F100FD
:100A00004083222339F02091F200211103C02BE60C
:100A10002093E8003FBF08958FEF9FEF08952FB711
:100A2000F89483E08093E9009091E800892F807228
:100A300095FF04C09091F20080E4891B2FBF0895B8
:100A400080919E0181110DC082E080939A0184E023
:100A500080939B0110929D0110929C0181E08093F4
:100A60009E018AE991E00895CF93DF931F92CDB75D
:100A7000DEB76983DC01ED91FC910280F381E02D0A
:100A800041E050E0BE016F5F7F4F09950F90DF910D
:100A9000CF91089583E08093E9008091F20088234C
:100AA00019F08AE38093E80008950E940F0590E012
:100AB0000895CF93DF931F92CDB7DEB7FC018485F5
:100AC000958597FD08C02FEF3FEF358724870F905E
:100AD000DF91CF910895CE0101960E94E504019720
:100AE00019F4898190E0F3CF8FEF9FEFF0CF0F9350
:100AF0001F93CF93DF931F92CDB7DEB78C01FC011C
:100B00008485958597FF0BC0CE0101960E94E50470
:100B1000019771F4898190E0F80195878487F80145
:100B2000848595850F90DF91CF911F910F91089546
:100B30008FEF9FEFF1CFFC018485958597FD0BC06A
:100B40009FB7F89482E08093E9008091F2009FBF04
:100B500090E0019608959FB7F89482E08093E900B1
:100B60008091F2009FBF90E00895409194015091D0
:100B70009501209192013091930142175307B4F4EB
:100B80009091E8009570E1F39091E80092FD19C012
:100B90008093F100809194019091950101968F735B
:100BA0009927892B19F48EEF8093E80080919401A6
:100BB000909195010196909395018093940181E025
:100BC000089580E00895DF92EF92FF920F931F93B4
:100BD000CF93DF93D82E8A01EB017B01E40EF51E43
:100BE000CE15DF0559F0D7FE12C0FE0184910E9498
:100BF000B50521968111F4CF0FEF1FEFC801DF91EA
:100C0000CF911F910F91FF90EF90DF900895888111
:100C1000EECF0F931F93CF93DF931F92CDB7DEB725
:100C200082E0898342E450E065EC75E080E80E9450
:100C3000E3050E942005DC0112960D911C9101151F
:100C4000110589F0D801ED91FC910280F381E02D2E
:100C5000BE016F5F7F4FC801099597FD04C0F80181
:100C600000851185ECCF89810F90DF91CF911F9185
:100C70000F910895615030F02091F100FC01208324
:100C80000196F8CF289884E68093A60108958111F3
:100C900005C081E0611106C080E004C0813019F414
:100CA0006230D0F3089581E06330E0F7F5CFAF9282
:100CB000BF92CF92DF92EF92FF920F931F93CF9349
:100CC000DF936C017B018B01040F151FEB015E01AB
:100CD000AE18BF08C017D10759F06991D601ED9140
:100CE000FC910190F081E02DC6010995892B79F7DF
:100CF000C501DF91CF911F910F91FF90EF90DF9091
:100D0000CF90BF90AF9008958FB18095807F669B04
:100D100088601C9B8460089590E1282F81E061FD2C
:100D200084E060FD880F62FD8295687F969FD00108
:100D30001124A20FA655BE4F0C90082A40FF08268A
:100D40000C9208950DB407FEFDCF8EB5599A089503
:100D50000DB407FEFDCF8EB51EBC089559980E94B4
:100D6000C606862F0E94C606852F0E94C606842FBF
:100D70000C94C606462F5091A801570F6091A90107
:100D8000681F83E00E94AE061EBC08958EBD000061
:100D90008EB50DB407FEFCCF0895FC010E946807D4
:100DA000319728F068517C4F8F4F9F4FF9CFAB019F
:100DB000FC010E946807641775078E079F07C8F338
:100DC000089585E090E00C94CD068F929F92AF92AB
:100DD000BF92CF92DF92EF92FF920F931F93CF9328
:100DE000DF936C017B018A0180913301882309F430
:100DF0005AC08091A701882309F455C080919901B8
:100E000080FF05C08091E00082608093E000E801EF
:100E1000B12C8AEFA82E93E0892E2AE3922E2097F8
:100E200011F4BB20C9F10E940F05811108C0AA94DA
:100E3000AA20C9F181E090E00E94CD06F0CF8C1786
:100E40001D0611F00CF08C2F9FB7F8948092E900EA
:100E50002091E80025FD02C09FBFE1CF282F30E0A0
:100E6000C21BD30BF701815020F041914093F10058
:100E7000FACFE20EF31EBB2021F09092E800B12CD5
:100E8000EBCF8091E80085FDE7CF9092E800BB248E
:100E9000B394209709F3F3CF5D9884E6809398018B
:100EA000101611063CF081E090E0F60193838283F6
:100EB00010E000E0C801DF91CF911F910F91FF90EA
:100EC000EF90DF90CF90BF90AF909F908F9008955C
:100ED000AAE7B1E02FB7F8947D918D919C9166B50A
:100EE0002FBFA89B05C06F3F18F47F5F8F4F9F4FA8
:100EF00022E0660F771F881F991F2A95D1F7089562
:100F00006F927F928F929F92AF92BF92CF92DF9219
:100F1000EF92FF920F931F93CF93DF936D3081F089
:100F200000918501109186016A30D9F410928801F0
:100F300010928701085F1F4F10938601009385016F
:100F400081E090E0DF91CF911F910F91FF90EF90A2
:100F5000DF90CF90BF90AF909F908F907F906F90D9
:100F60000895C62FE0908701F0908801D0919101FB
:100F7000609100018D2F0E944706782E60E08D2F32
:100F80000E944706682E78122FC0672D8D2F0E9471
:100F90004706782E570126E0A20EB11CE701480152
:100FA00088E0880E911CCA15DB0509F44FC0680162
:100FB00017FF02C0D12CC12CC401E1E48E169104AC
:100FC00014F080E490E0C816D90664F4C038D10566
:100FD00028F4472DB601CE010E948C06FFEFCF1AF0
:100FE000DF0AEACF2196DFCF25E0C29FE00111247E
:100FF000C455DF4F5701D12C85E0C12CD81629F0FC
:10100000CE010196FE01C490EC01912C812C462D5D
:10101000C0FC472DF0E8AF16B10448F4B801680DE4
:10102000791D6034710518F4C5010E948C06C694C0
:101030002FEF821A920A88E08816910441F7D39420
:10104000EFEFAE1ABE0AF6E0DF12D6CF26E0E20ED0
:10105000F11CF0928801E092870172CF30E73CBD2D
:10106000DC0130E8439FC0011124A80FB91F5E9135
:10107000352F6111372F3C93C89500C052235EBDB8
:101080000197A9F704D003D030E50DB43CBD089515
:10109000AF92BF92CF92DF92EF92FF920F931F9386
:1010A000CF93DF93EC015B016901E42E842FB9013A
:1010B0000E94BA060E94A806F82E0E94A206C03816
:1010C000D1050CF03EC090E4A916B1040CF039C073
:1010D0002F2D30E0A9014C0F5D1F141615060CF0E2
:1010E00030C0E82FF0E0AF014A0D5B1D1416150665
:1010F0000CF027C0FE2FEE27EF29F32B92E0C90E4C
:10110000D11CE11C93E001151105A1F0869586958F
:10111000869590FD880F8F9D9001219FD00CE11C3A
:10112000309FD00CE11C319FE00C209FC00CD11CE3
:101130001124E11C85019E016E2DA601CF010E94A4
:10114000B303DF91CF911F910F91FF90EF90DF904C
:10115000CF90BF90AF9008955C98FC012591CF018E
:101160002EBD00000DB407FEFDCF6150B1F75C9AB3
:101170000895089590E080E008958F929F92AF9235
:10118000BF920F931F93CF93DF93CDB7DEB7A19795
:101190000FB6F894DEBF0FBECDBF19A2423008F4DF
:1011A0004AE08E010F5D1F4F842E912CB12CA12C93
:1011B000A50194010E94880FE62FB901CA01EA3007
:1011C00044F5E05DD801EE938D01232B242B252BD4
:1011D00079F790E080E0109769F0FD010190002020
:1011E000E9F73197AF014A1B5B0BBD018AEF95E030
:1011F0000E945706A1960FB6F894DEBF0FBECDBF72
:10120000DF91CF911F910F91BF90AF909F908F90E2
:101210000895E95CD7CF0F931F93CF93DF938C0191
:10122000EB010E94720F8883C80101960E94720F21
:101230008983CE01DF91CF911F910F910895FF9285
:101240000F931F93CF93DF93EC018B01FB01F08091
:101250000E94720FF81621F06F2DCE010E947A0FB6
:10126000F801F1802196CE010E94720FF81621F04C
:101270006F2DCE010E947A0FC801DF91CF911F918F
:101280000F91FF9008951F920F920FB60F921124A5
:101290008F939F938091E1009091E100937F9093D1
:1012A000E10083FF0FC01092E90091E09093EB0002
:1012B0001092EC0092E39093ED001092A70198E059
:1012C0009093F00082FF22C093E09093E900909108
:1012D000F200992319F09AE39093E8009091980115
:1012E000992341F090919801915090939801911118
:1012F00001C05D9A9091A601992341F09091A601B9
:1013000091509093A601911101C0289A84FF18C0B2
:101310008091E2008E7E81608093E2008091E10006
:101320008F7E8093E100809199018E7E8061809311
:1013300099019F918F910F900FBE0F901F9018955C
:1013400080FFF7CF8091E2008E7E80618093E20083
:101350008091E1008E7E8093E100809199018E7EE4
:101360008160E5CF1F920F920FB60F921124CF929A
:10137000DF92EF92FF920F931F932F933F934F9320
:101380005F936F937F938F939F93AF93BF93EF93ED
:10139000FF93CF93DF93CDB7DEB76C97DEBFCDBFA2
:1013A0001092E9008091E80083FF25C068E0CE013B
:1013B00045960E943A0682EF8093E8008D8987FF68
:1013C00039C09091E80090FFFCCF982F907609F0FB
:1013D00034C19E894F89588D2F89F88C911131C065
:1013E000803861F5809197018093F1001092F100AF
:1013F0008EEF8093E8006C960FB6F894DEBF0FBEB8
:10140000CDBFDF91CF91FF91EF91BF91AF919F91B0
:101410008F917F916F915F914F913F912F911F918C
:101420000F91FF90EF90DF90CF900F900FBE0F9035
:101430001F9018959EEF9093E800C7CF1092F1008F
:10144000D5CF913059F48111D3CF4130510581F678
:10145000809197018D7F80939701CACF933049F493
:101460008111C6CF4130510519F6809197018260F4
:10147000F2CF953041F48091E80080FFFCCF2068E6
:101480002093E300B5CF963009F0A9C00B8D1C8DD9
:1014900022E01092E9001092950110929401F2124C
:1014A0002EC010929301109292010E9409061F8291
:1014B00099E09983FA8291E09E8390EA98879AEF67
:1014C00099872091940130919501275F3F4F3C838C
:1014D0002B838D831092E900109295011092940154
:1014E000109393010093920149E050E0BE016F5FB9
:1014F0007F4F80E00E94E3050E94090679CF109398
:101500009301009392010E942005DC0112960D9137
:101510001C910115110509F451C1D801ED91FC91FF
:101520000480F581E02DBE016B5E7F4FC8010995F7
:10153000009709F03EC1F80100851185EACFF3E07C
:10154000FF120EC08F89882309F440C0823061F4F5
:1015500040E867E089E296E00E94450C811148CF9F
:1015600081E28093EB0047CF813029F440E86BE0C3
:101570008DE196E0F1CF833099F70E942005DC01E0
:101580001296ED90FC908E010F5F1F4F6801E114E1
:10159000F10479F0D701ED91FC910680F781E02DFF
:1015A000B801C7010995080F111DF701E084F18406
:1015B000EECFD8011C92F60101900020E9F7319797
:1015C000BF016C197D0940E0C601C6CF67E076E037
:1015D000FB01449150E080E80E94E30509CF973079
:1015E00009F4BECF983021F481E08093F10000CF60
:1015F000993009F0FDCE837009F0B2CFE7E3F1E056
:1016000081E031E096E32191222371F08093E9009B
:101610003093EB00DF0111972C912093EC00909315
:10162000ED008F5F873079F78EE78093EA001092A4
:10163000EA008F898093A701DBCE8B8D9C8D109261
:10164000E900109295011092940190939301809378
:101650009201898D811192C08E899D89913A49F4B8
:10166000813209F07DCF47E050E06CE271E080E02C
:10167000B3CF913209F074CF833269F48F89988D9A
:10168000B0E0A0E08093280190932901A0932A0163
:10169000B0932B01ADCE803269F48091E80082FFD7
:1016A000FCCF67E08CE291E00E943A068BEF8093DA
:1016B000E8009ECE823209F09BCE8F898093330161
:1016C000EEEFFFE7859194918B3F9C4D51F1E0E067
:1016D000F8E080912C0190912D01A0912E01B09104
:1016E0002F01803B9440A105B105F1F480913301B5
:1016F00080FD1AC0EE3F8AE0F80789F587E797E793
:1017000091838083809160008093960188E19BE0C3
:101710000FB6F894A895809360000FBE9093600078
:1017200067CEEEEFFAE0D5CF80819181873797477A
:1017300009F05ECEA895809160008861809360007A
:101740008091960180936000EE3F2AE0F20789F0D5
:101750008091FE0A9091FF0A9183808349CE808117
:1017600091818737980751F29093FF0A8093FE0A80
:10177000C5CF1092FF0A1092FE0A3ACE0E942005B1
:10178000DC0112960D911C910115110509F4E8CEAA
:10179000D801ED91FC910190F081E02DBE016B5ECE
:1017A0007F4FC8010995811123CEF801008511856D
:1017B000EBCF181619060CF41BCED2CEF1E0FF12B7
:1017C000BECE6BE076E004CF0F920FB68F939F935F
:1017D000EF93FF93809175018D5F8D3708F08D57E2
:1017E00080937501E6E7F1E080818E4F80839181DF
:1017F0009F4F918382818F4F828383818F4F838319
:10180000EAE7F1E080818F5F808381818F4F818360
:1018100082818F4F828383818F4F83838FB18F60CB
:1018200066991C9B88278F3681F480917401981BE0
:10183000963068F0E0E0F8E087E78083818388E114
:1018400080936000F0936000FFCF90937401FF914C
:10185000EF919F918F910FBE0F9018951F920F924D
:101860000FB60F9211248F939F9382E496E090938A
:1018700099008093980081E0809380019F918F91DF
:101880000F900FBE0F901F901895EF92FF920F933D
:101890001F93CF93DF93F82E192FE62E042F81E0AC
:1018A000860F880F0E94B50583E00E94B505CF2DF5
:1018B000D12FEC0EFD2EF11CCE15DF05B9F007FF80
:1018C00013C0FE0184910E94B505182F80E00E948C
:1018D000B505812321968111EFCFDF91CF911F9123
:1018E0000F91FF90EF9008958881EDCF81E0F5CFC3
:1018F000EAEAF5E01382128288EE93E0A0E0B0E01D
:1019000084839583A683B78381E491E09183808368
:101910008FEF9FEF95878487EAEFF5E013821282BD
:1019200083E591E091838083089500D0CDB7DEB741
:10193000789483E084BD83E085BD81E080936E0070
:10194000E1E8F0E083E08083E0E881E08083E1E9A2
:1019500083E08083E0E981E08083E1EC87E08083BD
:10196000E3EC81E08083E0EC82E08083E2EC81E0E4
:101970008083EAE787E08083806880831092A701F4
:1019800010929701109299018091D7008160809305
:10199000D70080EA8093D80089B5806189BD89B578
:1019A000826089BD09B400FEFDCF81E090E00E9415
:1019B000CD068091D8008F7C80618093D800809183
:1019C000E000807F8093E0008091E1008E7E809334
:1019D000E1008DE08093E200559A209A81EC80939B
:1019E0007C0081EF85B987EE84B982E38BB982EF01
:1019F0008AB9769A6E9880EF81BB10BA80E58CBD6B
:101A000081E08DBD0E94E1065F9A0E94E1065C982C
:101A1000ECEAF5E085918EBD00000DB407FEFDCF28
:101A2000E93BC1F75C9A81E88093640081E0809390
:101A3000650068E089EB95E00E94AC082FB7F89448
:101A400082E496E0909399008093980093E09093BD
:101A500090008BE180939100109295001092940079
:101A6000809171008260809371002FBF909300017C
:101A70005E9AE4E1F0E089E89FEF60EF7FEF259167
:101A80003591559145912851354909F4CA01809302
:101A9000A8019093A901259135915591459128511F
:101AA000354909F4BA0160937E0170937F0159981A
:101AB0008BEA0E94C606599ABE016F5F7F4F80EE87
:101AC00093E00E940B0989819A818035924461F1EB
:101AD00010928D0110928C0164E371E080EE93E02E
:101AE0000E941F096CE871E082EE93E00E941F09DA
:101AF00083E0382E95E0892E912C20E0A22E20E064
:101B0000B22E442443943CE3632E712CF8948091CC
:101B10008001811110C083B7816083BF789488955C
:101B200083B78E7F83BFF2CF6CE871E082EE93E0E3
:101B30000E940B09DDCF10928001789410919101E1
:101B40002FE741E050E061E070E08AE295E00E941A
:101B50002E0862E083EC95E00E94AC082FEF47E08E
:101B600051E061E070E08AEA91E00E942E0862E0B4
:101B700081EC95E00E94AC088EEF810F1F5F8E3FD5
:101B800030F4809181018F5F8093810110E0109388
:101B900091015E9A80918101882389F08150809320
:101BA000810110918201109383010E948406809329
:101BB0008201909190019923A1F0913009F1009157
:101BC000910190919001992309F4ADC0913009F4ED
:101BD000B5C05E98A114B10409F498CF0E9400002A
:101BE00095CF8091010190910201009731F001970A
:101BF0009093020180930101E2CF40929001DFCFE8
:101C00002091890130918A01232B09F047C013FDEF
:101C100002C083FD04C012FD41C082FF3FC040925C
:101C2000840180918E0190918F0120918401222363
:101C3000C1F1409690938F0180938E0180918E0127
:101C400090918F01853691058CF5109216011092B6
:101C50008B010E94840683FF60C0409209010E94AC
:101C6000840682FF5DC010922301809189019091CA
:101C70008A01181619060CF0A2CF019790938A01D9
:101C800080938901892B09F09ACF10928F011092CD
:101C90008E0110928B011092160191CF1092840147
:101CA000C0CF1816190654F60197C4CF893C910588
:101CB0001CF440921601CDCF8D3221E0920724F41E
:101CC00082E080931601C5CF813921E092071CF490
:101CD00030921601BECF853F914014F484E0F1CFDD
:101CE00094E09093160180918B018111B2CF4092C4
:101CF0008B0180918C0190918D01019690938D01C3
:101D000080938C0170928A01609289016CE871E085
:101D100082EE93E00E941F099CCF109209019FCF91
:101D200040922301A2CF10E026E33EE440E070E0C1
:101D300060E090E080E00E9448084BCF023058F409
:101D4000EAEAF1E091119FEF8FEF919391939193D4
:101D500091938150D0F750901E0120901D0112E107
:101D6000120D2FE325155CF01D394CF089EF581644
:101D700034F020E044E6652D812F0E9444038091D9
:101D80008E0190918F01853F21E0920714F084EF3E
:101D900091E0B4010E94AA0F462F6623B1F08FE3B1
:101DA00085159CF0812F012E000C990B860F911D3B
:101DB0001816190654F499EF59163CF021E0011158
:101DC00020E0652D812F0E944403E02EF12C8091AC
:101DD00016018701839D000D111D11242091120110
:101DE0003091130140911401609110017091110123
:101DF00080910E0190910F010E9448088091090185
:101E00008701839D000D111D112420910501309142
:101E10000601409107016091040170E08091030187
:101E200090E00E944808809123018701839D000D66
:101E3000111D112420911F01309120014091210199
:101E4000652D70E0822D90E00E9448081092880174
:101E500010928701109286011092850147E050E0B0
:101E60006BE571E08AEF95E00E945706C0908C0107
:101E7000D0908D010D2C000CEE08FF084AE0C70140
:101E8000B601F7FE0DC06DE28AEF95E00E94800773
:101E900066277727CB016C197D098E099F094AE0D7
:101EA0000E94BD0880918B01882309F492CE809115
:101EB000890190918A01181619060CF08ACE84E1E6
:101EC00090E090938801809387019093860180939E
:101ED00085014FE050E063E671E08AEF95E00E94F3
:101EE000570677CEF999FECF92BD81BDF89A992712
:101EF00080B50895262FF999FECF1FBA92BD81BDF6
:101F000020BD0FB6F894FA9AF99A0FBE019608957B
:101F1000A1E21A2EAA1BBB1BFD010DC0AA1FBB1FED
:101F2000EE1FFF1FA217B307E407F50720F0A21B5F
:101F3000B30BE40BF50B661F771F881F991F1A94CC
:101F400069F760957095809590959B01AC01BD01F6
:101F5000CF01089597FB072E16F4009407D077FD64
:101F600009D00E94BE0F07FC05D03EF490958195E4
:101F70009F4F0895709561957F4F0895AA1BBB1BD5
:101F800051E107C0AA1FBB1FA617B70710F0A61B79
:101F9000B70B881F991F5A95A9F780959095BC019A
:101FA000CD010895EE0FFF1F0590F491E02D0994E7
:041FB000F894FFCFD3
:101FB400014B000420000000030006000000330071
:101FC4000000040600020003000016200004300292
:101FD4000300030006000000FFFFFFFF00E1000014
:101FE40000000000504200C1808100000000000099
:101FF400003405E50655054A059B05590577050096
:1020040000000080075706BA08B9085065656C736C
:102014003A20004E616E6E6572205065656C656491
:042024002121000076
:00000001FF
